:100000000C9462000C948A000C948A000C948A0070
:100010000C948A000C948A000C948A000C948A0038
:100020000C948A000C948A000C948A000C9453045B
:100030000C948A000C948A000C948A000C948A0018
:100040000C94B1030C948A000C9421040C94FB03CF
:100050000C948A000C948A000C948A000C948A00F8
:100060000C948A000C948A000000000024002700F1
:100070002A0000000000250028002B0000000000DE
:1000800023002600290004040404040404040202DA
:100090000202020203030303030301020408102007
:1000A0004080010204081020010204081020000012
:1000B0000008000201000003040700000000000027
:1000C00000005C0811241FBECFEFD8E0DEBFCDBF1B
:1000D00012E0A0E0B1E0EAE2F4E102C005900D9286
:1000E000A431B107D9F723E0A4E1B2E001C01D9229
:1000F000AB31B207E1F710E0C2E6D0E004C02197CF
:10010000FE010E94E408C136D107C9F70E94060526
:100110000C94130A0C9400008EEE8093010388E186
:100120008093020386E1809303038091E102209192
:10013000E202809304038091E3029091E40227702D
:10014000AC0133E0440F551F3A95E1F7242B20937F
:1001500005032091E5023091E60245E095958795EB
:100160004A95E1F78F73A90166E0440F551F6A9520
:10017000E1F7842B80930603C901959587959595A2
:100180008795809307038091E7029091E80232FB04
:10019000222720F9AC01440F551F242B209308037C
:1001A0002091E9023091EA02880F892F881F990B6C
:1001B0008F70A901A4E0440F551FAA95E1F7842B85
:1001C000809309034091EB025091EC02B4E0359525
:1001D0002795BA95E1F740FB27F920930A03CA0156
:1001E0009595879580930B038091ED029091EE0297
:1001F000252F25952370AC01440F551F440F551F23
:10020000242B20930C032091EF023091F00246E062
:10021000959587954A95E1F78F71A90165E0440F9F
:10022000551F6A95E1F7842B80930D0373E0359594
:1002300027957A95E1F720930E038091F1022091A2
:10024000F20280930F038091F3029091F4022770E1
:10025000AC01E3E0440F551FEA95E1F7242B20930E
:1002600010032091F5023091F602F5E095958795FF
:10027000FA95E1F78F73A901A6E0440F551FAA95DF
:10028000E1F7842B80931103C90195958795959586
:100290008795809312038091F7029091F80232FBC8
:1002A000222720F9AC01440F551F242B2093130360
:1002B0002091F9023091FA02880F892F881F990B3B
:1002C0008F70A90164E0440F551F6A95E1F7842BF4
:1002D000809314034091FB025091FC0274E0359529
:1002E00027957A95E1F740FB27F920931503CA017A
:1002F00095958795809316038091FD029091FE025B
:10030000252F25952370AC01440F551F440F551F11
:10031000242B209317032091FF0230910003A6E0C5
:1003200095958795AA95E1F78F71A901B5E0440FDE
:10033000551FBA95E1F7842B8093180383E0359518
:1003400027958A95E1F720931903A3E0B3E08AE1AA
:1003500093E0E0E02D91E227F0E0EC5EFE4FE081DB
:100360008A179B07B9F7E0931A030895833081F049
:1003700028F4813099F08230A9F008958730A9F0EF
:100380008830C9F08430B1F4809180008F7D03C043
:10039000809180008F7780938000089584B58F7757
:1003A00084BD089584B58F7DFBCF8091B0008F7799
:1003B0008093B00008958091B0008F7DF9CFCF93E6
:1003C000DF93282F30E0F901E255FF4F8491F901C6
:1003D000E656FF4FD491F901EA57FF4FC491CC2361
:1003E000A1F081110E94B601EC2FF0E0EE0FFF1F8B
:1003F000E458FF4FA591B491EC91ED2381E090E09A
:1004000009F480E0DF91CF91089580E090E0FACF89
:100410001F93CF93DF93282F30E0F901E255FF4F70
:100420008491F901E656FF4FD491F901EA57FF4F45
:10043000C491CC23A9F0162F81110E94B601EC2F94
:10044000F0E0EE0FFF1FEE58FF4FA591B4918FB76C
:10045000F894EC91111108C0D095DE23DC938FBF86
:10046000DF91CF911F910895DE2BF8CFCF93DF93CB
:1004700090E0FC01E656FF4F24918A579F4FFC0104
:1004800084918823D1F090E0880F991FFC01E859EE
:10049000FF4FA591B491FC01EE58FF4FC591D49147
:1004A000623071F49FB7F8943C91822F809583233A
:1004B0008C93E8812E2B28839FBFDF91CF910895E5
:1004C0008FB7F894EC912E2B2C938FBFF6CF209101
:1004D000010190E4299F900111248E50822B80937A
:1004E0007C0080917A00806480937A0080917A0009
:1004F00086FDFCCF809178009091790008953FB7F8
:10050000F8948091DD029091DE02A091DF02B0911B
:10051000E00226B5A89B05C02F3F19F00196A11D4A
:10052000B11D3FBFBA2FA92F982F8827BC01CD013D
:10053000620F711D811D911D42E0660F771F881F9C
:10054000991F4A95D1F70895AF92BF92CF92DF924B
:10055000EF92FF920F931F93CF93DF936C017B0178
:100560008B01040F151FEB015E01AE18BF08C01709
:10057000D10759F06991D601ED91FC910190F0817C
:10058000E02DC6010995892B79F7C501DF91CF913F
:100590001F910F91FF90EF90DF90CF90BF90AF90A1
:1005A0000895FC01538D448D252F30E0842F90E079
:1005B000821B930B541710F0CF960895019708955E
:1005C000FC01918D828D981761F0A28DAE0FBF2F27
:1005D000B11D5D968C91928D9F5F9F73928F90E07D
:1005E00008958FEF9FEF0895FC01918D828D9817EC
:1005F00031F0828DE80FF11D858D90E008958FEF29
:100600009FEF0895FC01918D228D892F90E0805CF1
:100610009F4F821B91098F73992708958DE192E076
:100620000E94020321E0892B09F420E0822F089523
:1006300080E090E0892B29F00E940E0381110C9438
:1006400000000895FC01A48DA80FB92FB11DA35A75
:10065000BF4F2C91848D90E001968F739927848FE2
:10066000A689B7892C93A089B1898C918370806405
:100670008C93938D848D981306C00288F389E02DA6
:1006800080818F7D80830895EF92FF920F931F9357
:10069000CF93DF93EC0181E0888F9B8D8C8D981335
:1006A0001AC0E889F989808185FF15C09FB7F89441
:1006B000EE89FF896083E889F9898081837080648D
:1006C00080839FBF81E090E0DF91CF911F910F91D8
:1006D000FF90EF900895F62E0B8D10E00F5F1F4FE7
:1006E0000F731127E02E8C8D8E110CC00FB607FCF6
:1006F000FACFE889F989808185FFF5CFCE010E9484
:100700002203F1CFEB8DEC0FFD2FF11DE35AFF4FCC
:10071000F0829FB7F8940B8FEA89FB898081806211
:10072000CFCFCF93DF93EC01888D8823B9F0AA89CE
:10073000BB89E889F9898C9185FD03C0808186FD9C
:100740000DC00FB607FCF7CF8C9185FFF2CF8081EB
:1007500085FFEDCFCE010E942203E9CFDF91CF913B
:1007600008951F920F920FB60F9211242F933F936B
:100770008F939F93AF93BF938091D9029091DA02A8
:10078000A091DB02B091DC023091D80223E0230F6C
:100790002D3758F50196A11DB11D2093D8028093E5
:1007A000D9029093DA02A093DB02B093DC0280912D
:1007B000DD029091DE02A091DF02B091E00201968D
:1007C000A11DB11D8093DD029093DE02A093DF0294
:1007D000B093E002BF91AF919F918F913F912F9184
:1007E0000F900FBE0F901F90189526E8230F0296CA
:1007F000A11DB11DD2CF1F920F920FB60F921124DF
:100800002F933F934F935F936F937F938F939F9318
:10081000AF93BF93EF93FF938DE192E00E94220389
:10082000FF91EF91BF91AF919F918F917F916F91C8
:100830005F914F913F912F910F900FBE0F901F909E
:1008400018951F920F920FB60F9211242F938F932A
:100850009F93EF93FF93E0912D02F0912E02808100
:10086000E0913302F091340282FD1BC090818091AF
:1008700036028F5F8F7320913702821741F0E0912B
:100880003602F0E0E35EFD4F958F80933602FF91D4
:10089000EF919F918F912F910F900FBE0F901F900E
:1008A00018958081F4CF1F920F920FB60F921124EA
:1008B000CF92DF92EF92FF921F932F933F934F932C
:1008C0005F936F937F938F939F93AF93BF93CF93D8
:1008D000DF93EF93FF931092850010928400809134
:1008E0000001882321F161E082E00E94080288E58E
:1008F00092E0909389008093880010920001FF910C
:10090000EF91DF91CF91BF91AF919F918F917F91A7
:100910006F915F914F913F912F911F91FF90EF90B9
:10092000DF90CF900F900FBE0F901F90189560E052
:1009300082E00E94080281E080930001109116027B
:100940001C30C0F010921602809114029091150292
:10095000845D9E4F919581959109880F991F8853C9
:100960009045909389008093880010921502109210
:100970001402C5CFC12FD0E0CC0FDD1FCF51DD4F0A
:1009800028813981032E000C440B550B2C5A310958
:1009900041095109A8EEB3E00E94A80827E6C22E3B
:1009A00026E0D22EE12CF12CA70196010E948908A5
:1009B00024543D4F4F4F5F4F220F331F3093890018
:1009C0002093880028813981032E000C440B550B9D
:1009D0002C5A310941095109A8EEB3E00E94A80838
:1009E000A70196010E94890828513C4F4F4F5F4F45
:1009F0008091140290911502280F391F309315022F
:100A0000209314021F5F1093160279CF789484B557
:100A1000826084BD84B5816084BD85B5826085BDFA
:100A200085B5816085BD80916E00816080936E0088
:100A3000109281008091810082608093810080917A
:100A4000810081608093810080918000816080932B
:100A500080008091B10084608093B1008091B000EB
:100A600081608093B00080917A00846080937A00E6
:100A700080917A00826080937A0080917A00816010
:100A800080937A0080917A00806880937A00109237
:100A9000C100E1EEF2E081E093E02CEA30E0219346
:100AA00031938E179F07D9F71092010162E084E01D
:100AB0000E94360262E083E00E94360261E085E037
:100AC0000E94360261E087E00E94360261E082E027
:100AD0000E94360260E082E00E940802F8941092C0
:100AE00080001092810084E690E0909389008093CA
:100AF00088008091810088608093810080918100CE
:100B000082608093810080916F00826080936F008B
:100B100078940E947F024B015C01E8EECE2EE3E068
:100B2000DE2EE12CF12C0E947F02681979098A09D6
:100B30009B09683E734081059105A8F301E0C01A46
:100B4000D108E108F10818EE810E13E0911EA11CF6
:100B5000B11CC114D104E104F10429F7E0912D0284
:100B6000F0912E0282E08083E0912902F0912A0226
:100B70001082E0912B02F0912C0284E0808310928D
:100B80003502E0913102F091320286E08083E091FB
:100B90002F02F0913002808180618083E0912F02EA
:100BA000F0913002808188608083E0912F02F09183
:100BB0003002808180688083E0912F02F0913002C2
:100BC00080818F7D808361E085E00E94080263E080
:100BD000262E312C88248394912C4EEEB42E56E090
:100BE000A52E0E947F022B013C018EE00E9467022D
:100BF000BC01990F880B990B0E94630920E030E03B
:100C00004EEC52E40E94EF082DEC3CEC4CEE50E42C
:100C10000E94EA0887FF38C02FB7F8948091D90264
:100C20009091DA02A091DB02B091DC022FBF4091DB
:100C3000190250911A0260911B0270911C028C01E2
:100C40009D01041B150B260B370BB901A801483E6B
:100C5000534061057105C0F08093190290931A0208
:100C6000A0931B02B0931C0280911702909118026E
:100C7000892B09F09CC19092180280921702609112
:100C8000170285E00E94080282E10E94670236E9AD
:100C9000C32ED12C8E3991057CF082E10E9467022F
:100CA00029E6C22E23E0D22E823793402CF482E133
:100CB0000E94670208976C01D092D702C092D602B8
:100CC00081E10E9467028E3891050CF475C181E1C3
:100CD0000E946702823693400CF072C181E10E944B
:100CE000670208967C01F092D502E092D40280E17E
:100CF0000E94670206E910E0863991055CF080E108
:100D00000E9467028A3693400CF05FC180E10E9426
:100D100067028C011093D3020093D2028FE00E94ED
:100D20006702C6E9D0E0813991056CF08FE00E943E
:100D30006702C9E6D3E0853693402CF48FE00E9429
:100D40006702EC012596D093D102C093D0029601A0
:100D5000DD0C440B550B2956334041095109A7E6D8
:100D6000B6E00E94A8082DE23DEF4FEF5FEF0E9432
:100D7000890824553F4F4F4F5F4F3093E202209335
:100D8000E1029701FF0C440B550B295633404109F2
:100D90005109A7E6B6E00E94A8082DE23DEF4FEF0B
:100DA0005FEF0E94890824553F4F4F4F5F4F3093AC
:100DB000E4022093E302012E000C220B330BA90165
:100DC00098012956334041095109A7E6B6E00E942F
:100DD000A8082DE23DEF4FEF5FEF0E9489082455F0
:100DE0003F4F4F4F5F4F3093E6022093E5029E0145
:100DF000DD0F440B550B2659310941095109A7E66E
:100E0000B6E00E94A80823ED32E040E050E00E94E6
:100E1000890824553F4F4F4F5F4F3093E80220938E
:100E2000E70284E00E94DF01EC019093CF028093FF
:100E3000CE0283E00E94DF01CD2B09F0C9C00CEA8D
:100E400010E01093EA020093E902892B09F0C7C071
:100E50008CEA90E09093EC028093EB028091E102A7
:100E60009091E202883512E091070CF0BFC08091AA
:100E7000E3029091E402883522E092070CF0CFC0A3
:100E800082E090E09093C5028093C4029092BB02EE
:100E90008092BA029092C7028092C6028091CA02E2
:100EA0009091CB02A091CC02B091CD028415950512
:100EB000A605B70508F06EC08091C8029091C902DE
:100EC000853F91409CF40E948C004AE150E061E033
:100ED00073E08DE192E00E94A4028091C80290919B
:100EE000C90201969093C9028093C8028091C802FA
:100EF0009091C9029C01255F31402530310508F0F1
:100F0000A3C08091C6029091C702181619065CF51D
:100F10008091C402B092BC02A092BD029DE2909367
:100F2000BE02B092BF029AEE9093C00291E09093FD
:100F3000C1028093C202AEEBB2E0E0E08D91E827FF
:100F4000F0E0EC5EFE4FE08123EC32E02A173B0735
:100F5000A9F7E093C30248E050E06CEB72E08DE14A
:100F600092E00E94A4028091C8029091C902019669
:100F70009093C9028093C80292E8490E96E0591EE8
:100F8000611C711C4092CA025092CB026092CC024A
:100F90007092CD0200E010E0012B09F422CE0E94F5
:100FA0000E03882309F419CE0E94000016CE109279
:100FB00018021092170263CE96E9E92EF12C93CE17
:100FC00089E6E82E83E0F82E8ECE09E613E0A2CE65
:100FD00023E137E03093EA022093E90236CF03E1C0
:100FE00017E01093EC020093EB0238CF893795405D
:100FF00034F18091E3029091E40289379540FCF04E
:101000009092C5028092C4023092BB022092BA0232
:1010100022E030E03093C7022093C6023FCF8937E9
:1010200095406CF03092C5022092C4029092BB02AF
:101030008092BA023092C7022092C6022FCF10923D
:10104000C7021092C6022ACF8A5F9140049748F5E2
:101050008091C6029091C702181619060CF083CF32
:101060008091BA02B092BC02A092BD029DE2909320
:10107000BE02B092BF029AEE9093C002A092C1024B
:101080008093C202AEEBB2E0E0E08D91E827F0E0A1
:10109000EC5EFE4FE08183EC92E08A179B07A9F794
:1010A00058CF0E948C004AE150E061E073E08DE18E
:1010B00092E00E94A40260CFEDE1F2E0138212827E
:1010C00088EE93E0A0E0B0E084839583A683B783A5
:1010D00086E091E09183808385EC90E0958784871A
:1010E00084EC90E09787868780EC90E0918B808BF2
:1010F00081EC90E0938B828B82EC90E0958B848BDB
:1011000086EC90E0978B868B118E128E138E148E48
:101110000895052E97FB1EF400940E94A00857FD29
:1011200007D00E94B30807FC03D04EF40C94A0082B
:1011300050954095309521953F4F4F4F5F4F089503
:1011400090958095709561957F4F8F4F9F4F089533
:101150000E94D508A59F900DB49F900DA49F800D6F
:10116000911D11240895A1E21A2EAA1BBB1BFD019B
:101170000DC0AA1FBB1FEE1FFF1FA217B307E40776
:10118000F50720F0A21BB30BE40BF50B661F771FCE
:10119000881F991F1A9469F76095709580959095AE
:1011A0009B01AC01BD01CF010895A29FB001B39F87
:1011B000C001A39F700D811D1124911DB29F700D60
:1011C000811D1124911D0895EE0FFF1F0590F491CC
:1011D000E02D09940E949E0908F481E008950E9480
:1011E00003090C94D9090E94D20958F00E94CB0936
:1011F00040F029F45F3F29F00C94C20951110C947E
:101200000D0A0C94C8090E94EA0968F39923B1F306
:10121000552391F3951B550BBB27AA27621773071C
:10122000840738F09F5F5F4F220F331F441FAA1FB0
:10123000A9F335D00E2E3AF0E0E832D0915050406C
:10124000E695001CCAF72BD0FE2F29D0660F771F1A
:10125000881FBB1F261737074807AB07B0E809F000
:10126000BB0B802DBF01FF2793585F4F3AF09E3F85
:10127000510578F00C94C2090C940D0A5F3FE4F319
:10128000983ED4F3869577956795B795F7959F5FC8
:10129000C9F7880F911D9695879597F90895E1E014
:1012A000660F771F881FBB1F621773078407BA0773
:1012B00020F0621B730B840BBA0BEE1F88F7E095CE
:1012C0000895E89409C097FB3EF490958095709539
:1012D00061957F4F8F4F9F4F9923A9F0F92F96E982
:1012E000BB279395F695879577956795B795F111F7
:1012F000F8CFFAF4BB0F11F460FF1BC06F5F7F4F94
:101300008F4F9F4F16C0882311F096E911C07723A5
:1013100021F09EE8872F762F05C0662371F096E8AE
:10132000862F70E060E02AF09A95660F771F881F7D
:10133000DAF7880F9695879597F90895990F000821
:10134000550FAA0BE0E8FEEF16161706E807F90797
:10135000C0F012161306E407F50798F0621B730B32
:10136000840B950B39F40A2661F0232B242B252BB3
:1013700021F408950A2609F4A140A6958FEF811D56
:10138000811D089597F99F6780E870E060E00895F7
:101390009FEF80EC089500240A941616170618068D
:1013A0000906089500240A94121613061406050669
:1013B0000895092E0394000C11F4882352F0BB0FFA
:1013C00040F4BF2B11F460FF04C06F5F7F4F8F4F5D
:1013D0009F4F089557FD9058440F551F59F05F3F98
:1013E00071F04795880F97FB991F61F09F3F79F047
:1013F00087950895121613061406551FF2CF4695C9
:10140000F1DF08C0161617061806991FF1CF86954A
:101410007105610508940895E894BB27662777272E
:0A142000CB0197F90895F894FFCF6F
:10142A000101000000004403A402D1029103020357
:10143A00E002F40200D57FAAFE2B815429FC5683D0
:10144A00D702A87D52872DF8AC79D3067BAE04D19A
:10145A008550FA2FA471DB0E5A8F25F08D58F2278A
:10146A0073A60CD9F623895C08DD77A2DF0AA0757A
:10147A0021F45E8B9D48E23763B61CC9B461CB1E6A
:10148A004A9F35E0CF1AB06531E44E9BE633994C5A
:10149A0018CD67B239EC4693C712B86D10C56FBA4A
:1014AA00EE3B91446BBE14C19540EA3F42973DE83A
:1014BA00BC69C316EF3A904511C46EBBC613B96C2A
:1014CA0038ED4792BD68C21743963CE99441EB3E1A
:1014DA006ABF15C04B9E34E1B560CA1F62B71DC80A
:1014EA009C49E33619CC66B3E732984D30E54F9AFA
:1014FA00CE1BB16472A70DD88C59F3265B8E24F1EA
:10150A00A570DA0F20F55F8ADE0BA17409DC76A3D9
:10151A00F722885DD603A97C28FD5782FF2A8055C9
:10152A0001D47EAB8451FB2E7AAF05D0AD78D207B9
:04153A0053862CF9AF
:00000001FF
